:100000000EC01DC01CC01BC01AC019C018C017C02C
:1000100016C015C014C013C012C011C010C01124E6
:100020001FBECFE5D1E0DEBFCDBF20E0A0E6B0E04F
:1000300001C01D92A837B207E1F719D025C1E0CF62
:1000400020E297FF12C0C19AC29AC298660F771F2A
:10005000881F991F2150A9F7C09AC0988FEC97E08C
:100060000197F1F700C000000895C198EDCF87EE29
:1000700087BB88E188BB2FEF80E792E0215080406A
:100080009040E1F700C0000086B386B32FEF52E442
:10009000C52E5EE4D52EE12C58E1F52E63EB862EBD
:1000A00064E0962EA12CB12C75E0472E512C78E5FA
:1000B000672E712C86B3C6B3807190E080959095C1
:1000C00034E0959587953A95E1F7880FC870D0E0B0
:1000D000C095D09543E0D595C7954A95E1F7C80FEF
:1000E0002C1709F47EC0C23009F49CC0C33009F457
:1000F000C6C0C13009F485C088E090E8AEE4B0E045
:100100008093680090936900A0936A00B0936B009D
:1001100089E290E8A0E0B8E08093740090937500C5
:10012000A0937600B0937700C0926C00D0926D00DF
:10013000E0926E00F0926F008092600090926100F9
:10014000A0926200B09263008CEF91E8ACE9B0E05D
:100150008093640090936500A0936600B09367005D
:100160004092700050927100609272007092730021
:1001700088B3887F88BB6091700070917100809116
:100180007200909173005CDF609164007091650073
:10019000809166009091670053DF609160007091DC
:1001A000610080916200909163004ADF60916C0071
:1001B00070916D0080916E0090916F0041DF6091B1
:1001C000740070917500809176009091770038DF0F
:1001D000609168007091690080916A0090916B0055
:1001E0002FDF96B388B38C7F93FD816094FD82608E
:1001F00088BBAFE1BEE41197F1F700C000002C2FDF
:1002000059CF80E390E0ADE2B0E080936800909336
:100210006900A0936A00B0936B0089EC90E8A0E0BD
:10022000B8E010C080E090E0AFE2B0E080936800FA
:1002300090936900A0936A00B0936B0081E190E80D
:10024000A0E0B8E08093740090937500A0937600CE
:10025000B0937700C0926C00D0926D00E0926E0077
:10026000F0926F008092600090926100A092620014
:10027000B09263008CE790E8ACE8B0E069CF88EA20
:0C02800090E0AFE2B0E0C1CFF894FFCFF7
:00000001FF
